:04000000803115280E
:100008007E1480312000931C0A280B281328803185
:1000180072208031FD30F3007308200093057E10B4
:10002800090080311728F001F101F2017E1020004B
:10003800803155287108031D222823282828F1011A
:10004800F10A20000C142B28F10120008C01700803
:10005800220099000130F4007408F0072030700283
:10006800031C372838283928F0010800703021008F
:100078009900980140308B000230930020009301D2
:10008800203021008C0020008C01FF3028009500D2
:100098004B309700FA309600A03022009800990162
:1000A800080080313A20803180316A2080318031E7
:1000B8006E2080317203031D622863285E28803118
:1000C8001E208031F2015E2880311528F201F101ED
:1000D800F0010800280017158B170800F201F20A32
:0200E80008000E
:020000040001F9
:08000000FF3FFF3FFF3FFF3F00
:04000E00E43FFF3D8F
:00000001FF
